:020000020000FC
:10000000209A219A229A2398259A5298539800E090
:1000100040E050E060E070E080E090E0A0E0B0E020
:10002000C0E01B9B72D003D082D0D7D0FACF59B199
:10003000569556955370652F660F660F642B6D307D
:1000400019F06E3039F00CC058D0703011F473953F
:10005000002706C056D0703011F47395002700C0F9
:10006000452F0895713009F004C0802F739538D062
:100070001CC0723009F004C0902F739531D015C0A8
:10008000733009F004C0A02F73952AD00EC07430CD
:1000900009F004C0B02F739523D007C0753009F064
:1000A00004C0C02F03D0772700C008958D3089F495
:1000B0009A3079F4A13069F4B83059F4C13049F478
:1000C00010E88BD02D9AD5E0A3D0DA95E9F72D98DA
:1000D00006C018E082D0D9E09BD0DA95E9F7089500
:1000E00010E07BD098D023D078D095D010E075D098
:1000F00092D01DD072D08FD008950F3009F00395A3
:100100000895003009F00A9508955F935527A2D00D
:100110000AD01B9BFCCF543611F0A4DF02C0772716
:1001200000275F910895543609F053950895703073
:1001300009F002C010E450C0003009F002C01FE313
:100140004BC0013009F002C016E046C0023009F091
:1001500002C01BE541C0033009F002C01FE43CC0EF
:10016000043009F002C016E637C0053009F002C0BD
:100170001DE632C0063009F002C01DE72DC0073071
:1001800009F002C017E028C0083009F002C01FE7DC
:1001900023C0093009F002C01FE61EC00A3009F072
:1001A00002C017E719C00B3009F002C01CE714C0E9
:1001B0000C3009F002C019E30FC00D3009F002C085
:1001C0001EE50AC00E3009F002C019E705C00F3065
:1001D00009F002C011E700C008951F932F932FB7B5
:1001E0002F9328E0111F10F0289801C0289A2A9810
:1001F00000002A9A00002A982A95A1F72998000061
:10020000299A000029982F912FBF2F911F910895AF
:1002100002D001D008950F931F932F933F934F93D4
:1002200010E020E030E040E004E005BD002704BD20
:1002300006BD16B5212F101B022F310F0BF0F9CF81
:1002400043954B3709F0F5CF4F913F912F911F9177
:100250000F9108950F931F932F933F934F9310E0A7
:1002600020E030E040E002E005BD002704BD06BD0F
:1002700016B5212F101B022F310F0BF0F9CF43952C
:100280004E3409F0F5CF4F913F912F911F910F916F
:020290000895CF
:00000001FF
