:020000020000FC
:10000000209A219A229A2398259A5298539800E090
:1000100040E050E060E01B9B1FD003D02CD07CD090
:10002000FACF59B1569556955370652F660F660FE6
:10003000642B6D3019F06E3019F004C005D002C089
:1000400007D000C0452F08950F3009F0039508959B
:10005000003009F00A950895552777D008D01B9BEA
:10006000FCCF543611F0F0DF01C00027089554365C
:1000700009F053950895003009F002C01FE34BC00A
:10008000013009F002C016E046C0023009F002C09B
:100090001BE541C0033009F002C01FE43CC004303E
:1000A00009F002C016E637C0053009F002C01DE6AF
:1000B00032C0063009F002C01DE72DC0073009F03C
:1000C00002C017E028C0083009F002C01FE723C0B3
:1000D000093009F002C01FE61EC00A3009F002C054
:1000E00017E719C00B3009F002C01CE714C00C3030
:1000F00009F002C019E30FC00D3009F002C01EE57F
:100100000AC00E3009F002C019E705C00F3009F02F
:1001100002C011E700C008951F932F932FB72F93AC
:1001200028E0111F10F0289801C0289A2A98000092
:100130002A9A2A95B1F729980000299A000029984F
:100140002F912FBF2F911F910895E9ECF0E0D4E893
:10015000000000000000DA95D9F73197C1F7089543
:10016000E9E0FEE6DEE5000000000000DA95D9F7E0
:100170003197C1F70895E2E1FCEDD7E100000000FE
:0C0180000000DA95D9F73197C1F7089517
:00000001FF
